{
  "_format": "hh-sol-artifact-1",
  "contractName": "Microgrid",
  "sourceName": "contracts/Microgrid.sol",
  "abi": [
    {
      "inputs": [
        {
          "internalType": "address",
          "name": "_meterAddress",
          "type": "address"
        },
        {
          "internalType": "uint256",
          "name": "_rate",
          "type": "uint256"
        }
      ],
      "name": "createMeter",
      "outputs": [],
      "stateMutability": "nonpayable",
      "type": "function"
    },
    {
      "inputs": [
        {
          "internalType": "address",
          "name": "_meterAddress",
          "type": "address"
        },
        {
          "internalType": "uint256",
          "name": "_amount",
          "type": "uint256"
        }
      ],
      "name": "delivering",
      "outputs": [],
      "stateMutability": "nonpayable",
      "type": "function"
    },
    {
      "inputs": [
        {
          "internalType": "address",
          "name": "_meterAddress",
          "type": "address"
        }
      ],
      "name": "disableMeter",
      "outputs": [],
      "stateMutability": "nonpayable",
      "type": "function"
    },
    {
      "inputs": [
        {
          "internalType": "address",
          "name": "_meterAddress",
          "type": "address"
        }
      ],
      "name": "enableMeter",
      "outputs": [],
      "stateMutability": "nonpayable",
      "type": "function"
    },
    {
      "inputs": [],
      "name": "getAllMeters",
      "outputs": [
        {
          "internalType": "address[]",
          "name": "",
          "type": "address[]"
        }
      ],
      "stateMutability": "view",
      "type": "function"
    },
    {
      "inputs": [],
      "name": "getProsumerMeters",
      "outputs": [
        {
          "internalType": "address[]",
          "name": "",
          "type": "address[]"
        }
      ],
      "stateMutability": "view",
      "type": "function"
    },
    {
      "inputs": [
        {
          "internalType": "uint256",
          "name": "",
          "type": "uint256"
        }
      ],
      "name": "meterList",
      "outputs": [
        {
          "internalType": "address",
          "name": "",
          "type": "address"
        }
      ],
      "stateMutability": "view",
      "type": "function"
    },
    {
      "inputs": [
        {
          "internalType": "address",
          "name": "",
          "type": "address"
        }
      ],
      "name": "meterMeasures",
      "outputs": [
        {
          "internalType": "bool",
          "name": "active",
          "type": "bool"
        },
        {
          "internalType": "uint256",
          "name": "rate",
          "type": "uint256"
        },
        {
          "internalType": "uint256",
          "name": "energyConsumed",
          "type": "uint256"
        },
        {
          "internalType": "uint256",
          "name": "energyProduced",
          "type": "uint256"
        },
        {
          "internalType": "uint256",
          "name": "energyAvailable",
          "type": "uint256"
        },
        {
          "internalType": "uint256",
          "name": "energyDelivered",
          "type": "uint256"
        },
        {
          "internalType": "uint256",
          "name": "energyReserved",
          "type": "uint256"
        }
      ],
      "stateMutability": "view",
      "type": "function"
    },
    {
      "inputs": [
        {
          "internalType": "address",
          "name": "",
          "type": "address"
        }
      ],
      "name": "meterProsumer",
      "outputs": [
        {
          "internalType": "address",
          "name": "",
          "type": "address"
        }
      ],
      "stateMutability": "view",
      "type": "function"
    },
    {
      "inputs": [
        {
          "internalType": "address",
          "name": "_meterAddress",
          "type": "address"
        },
        {
          "internalType": "uint256",
          "name": "_energyConsumed",
          "type": "uint256"
        },
        {
          "internalType": "uint256",
          "name": "_energyProduced",
          "type": "uint256"
        }
      ],
      "name": "meterReport",
      "outputs": [],
      "stateMutability": "nonpayable",
      "type": "function"
    },
    {
      "inputs": [
        {
          "internalType": "address",
          "name": "",
          "type": "address"
        },
        {
          "internalType": "uint256",
          "name": "",
          "type": "uint256"
        }
      ],
      "name": "prosumerMeters",
      "outputs": [
        {
          "internalType": "address",
          "name": "",
          "type": "address"
        }
      ],
      "stateMutability": "view",
      "type": "function"
    },
    {
      "inputs": [
        {
          "internalType": "address",
          "name": "_meterAddress",
          "type": "address"
        },
        {
          "internalType": "uint256",
          "name": "_amount",
          "type": "uint256"
        }
      ],
      "name": "rejecting",
      "outputs": [],
      "stateMutability": "nonpayable",
      "type": "function"
    },
    {
      "inputs": [
        {
          "internalType": "address",
          "name": "_meterAddress",
          "type": "address"
        },
        {
          "internalType": "uint256",
          "name": "_amount",
          "type": "uint256"
        }
      ],
      "name": "reserving",
      "outputs": [
        {
          "internalType": "uint256",
          "name": "",
          "type": "uint256"
        }
      ],
      "stateMutability": "nonpayable",
      "type": "function"
    },
    {
      "inputs": [
        {
          "internalType": "address",
          "name": "_meterAddress",
          "type": "address"
        },
        {
          "internalType": "uint256",
          "name": "_rate",
          "type": "uint256"
        }
      ],
      "name": "setRate",
      "outputs": [],
      "stateMutability": "nonpayable",
      "type": "function"
    },
    {
      "inputs": [],
      "name": "totalMeters",
      "outputs": [
        {
          "internalType": "uint256",
          "name": "",
          "type": "uint256"
        }
      ],
      "stateMutability": "view",
      "type": "function"
    }
  ],
  "bytecode": "0x608060405234801561001057600080fd5b5061189b806100206000396000f3fe608060405234801561001057600080fd5b50600436106100f55760003560e01c80637cc9dbc011610097578063a81993c911610066578063a81993c91461029e578063a851d379146102ba578063d4d9dfc9146102d6578063de348951146102f2576100f5565b80637cc9dbc0146102025780638482df6a14610220578063931c93e914610250578063a76aab681461026e576100f5565b806350fa74cc116100d357806350fa74cc1461016457806365580ec0146101805780636caf9be2146101b057806372abdd3b146101cc576100f5565b80630b929a2d146100fa5780632bdb70971461012a578063374cd5ae14610146575b600080fd5b610114600480360381019061010f9190611308565b61030e565b6040516101219190611376565b60405180910390f35b610144600480360381019061013f91906113bd565b61034d565b005b61014e610406565b60405161015b919061140c565b60405180910390f35b61017e600480360381019061017991906113bd565b61040c565b005b61019a600480360381019061019591906113bd565b610794565b6040516101a7919061140c565b60405180910390f35b6101ca60048036038101906101c591906113bd565b61099a565b005b6101e660048036038101906101e19190611427565b610b4e565b6040516101f9979695949392919061146f565b60405180910390f35b61020a610b9d565b604051610217919061159c565b60405180910390f35b61023a60048036038101906102359190611427565b610c2b565b6040516102479190611376565b60405180910390f35b610258610c5e565b604051610265919061159c565b60405180910390f35b610288600480360381019061028391906113bd565b610d29565b6040516102959190611376565b60405180910390f35b6102b860048036038101906102b391906113bd565b610d77565b005b6102d460048036038101906102cf9190611427565b610e9c565b005b6102f060048036038101906102eb9190611427565b610f68565b005b61030c600480360381019061030791906115be565b611034565b005b6003818154811061031e57600080fd5b906000526020600020016000915054906101000a900473ffffffffffffffffffffffffffffffffffffffff1681565b600073ffffffffffffffffffffffffffffffffffffffff168273ffffffffffffffffffffffffffffffffffffffff16036103bc576040517f08c379a00000000000000000000000000000000000000000000000000000000081526004016103b39061166e565b60405180910390fd5b806000808473ffffffffffffffffffffffffffffffffffffffff1673ffffffffffffffffffffffffffffffffffffffff168152602001908152602001600020600101819055505050565b60045481565b6000811161041957600080fd5b600073ffffffffffffffffffffffffffffffffffffffff168273ffffffffffffffffffffffffffffffffffffffff1603610488576040517f08c379a000000000000000000000000000000000000000000000000000000000815260040161047f9061166e565b60405180910390fd5b600015156000808473ffffffffffffffffffffffffffffffffffffffff1673ffffffffffffffffffffffffffffffffffffffff16815260200190815260200160002060000160009054906101000a900460ff1615151461051d576040517f08c379a0000000000000000000000000000000000000000000000000000000008152600401610514906116da565b60405180910390fd5b33600160008473ffffffffffffffffffffffffffffffffffffffff1673ffffffffffffffffffffffffffffffffffffffff16815260200190815260200160002060006101000a81548173ffffffffffffffffffffffffffffffffffffffff021916908373ffffffffffffffffffffffffffffffffffffffff1602179055506040518060e001604052806001151581526020018281526020016000815260200160008152602001600081526020016000815260200160008152506000808473ffffffffffffffffffffffffffffffffffffffff1673ffffffffffffffffffffffffffffffffffffffff16815260200190815260200160002060008201518160000160006101000a81548160ff0219169083151502179055506020820151816001015560408201518160020155606082015181600301556080820151816004015560a0820151816005015560c082015181600601559050506003829080600181540180825580915050600190039060005260206000200160009091909190916101000a81548173ffffffffffffffffffffffffffffffffffffffff021916908373ffffffffffffffffffffffffffffffffffffffff160217905550600260003373ffffffffffffffffffffffffffffffffffffffff1673ffffffffffffffffffffffffffffffffffffffff168152602001908152602001600020829080600181540180825580915050600190039060005260206000200160009091909190916101000a81548173ffffffffffffffffffffffffffffffffffffffff021916908373ffffffffffffffffffffffffffffffffffffffff1602179055506001600460008282546107899190611729565b925050819055505050565b60008082116107a257600080fd5b600073ffffffffffffffffffffffffffffffffffffffff168373ffffffffffffffffffffffffffffffffffffffff1603610811576040517f08c379a00000000000000000000000000000000000000000000000000000000081526004016108089061166e565b60405180910390fd5b816000808573ffffffffffffffffffffffffffffffffffffffff1673ffffffffffffffffffffffffffffffffffffffff168152602001908152602001600020600401541015610895576040517f08c379a000000000000000000000000000000000000000000000000000000000815260040161088c906117cf565b60405180910390fd5b816000808573ffffffffffffffffffffffffffffffffffffffff1673ffffffffffffffffffffffffffffffffffffffff16815260200190815260200160002060060160008282546108e69190611729565b92505081905550816000808573ffffffffffffffffffffffffffffffffffffffff1673ffffffffffffffffffffffffffffffffffffffff168152602001908152602001600020600401600082825461093e91906117ef565b925050819055506000808473ffffffffffffffffffffffffffffffffffffffff1673ffffffffffffffffffffffffffffffffffffffff16815260200190815260200160002060010154826109929190611823565b905092915050565b600081116109a757600080fd5b600073ffffffffffffffffffffffffffffffffffffffff168273ffffffffffffffffffffffffffffffffffffffff1603610a16576040517f08c379a0000000000000000000000000000000000000000000000000000000008152600401610a0d9061166e565b60405180910390fd5b806000808473ffffffffffffffffffffffffffffffffffffffff1673ffffffffffffffffffffffffffffffffffffffff168152602001908152602001600020600401541015610a9a576040517f08c379a0000000000000000000000000000000000000000000000000000000008152600401610a91906117cf565b60405180910390fd5b806000808473ffffffffffffffffffffffffffffffffffffffff1673ffffffffffffffffffffffffffffffffffffffff1681526020019081526020016000206005016000828254610aeb9190611729565b92505081905550806000808473ffffffffffffffffffffffffffffffffffffffff1673ffffffffffffffffffffffffffffffffffffffff1681526020019081526020016000206006016000828254610b4391906117ef565b925050819055505050565b60006020528060005260406000206000915090508060000160009054906101000a900460ff16908060010154908060020154908060030154908060040154908060050154908060060154905087565b60606003805480602002602001604051908101604052809291908181526020018280548015610c2157602002820191906000526020600020905b8160009054906101000a900473ffffffffffffffffffffffffffffffffffffffff1673ffffffffffffffffffffffffffffffffffffffff1681526020019060010190808311610bd7575b5050505050905090565b60016020528060005260406000206000915054906101000a900473ffffffffffffffffffffffffffffffffffffffff1681565b6060600260003373ffffffffffffffffffffffffffffffffffffffff1673ffffffffffffffffffffffffffffffffffffffff168152602001908152602001600020805480602002602001604051908101604052809291908181526020018280548015610d1f57602002820191906000526020600020905b8160009054906101000a900473ffffffffffffffffffffffffffffffffffffffff1673ffffffffffffffffffffffffffffffffffffffff1681526020019060010190808311610cd5575b5050505050905090565b60026020528160005260406000208181548110610d4557600080fd5b906000526020600020016000915091509054906101000a900473ffffffffffffffffffffffffffffffffffffffff1681565b60008111610d8457600080fd5b600073ffffffffffffffffffffffffffffffffffffffff168273ffffffffffffffffffffffffffffffffffffffff1603610dbd57600080fd5b806000808473ffffffffffffffffffffffffffffffffffffffff1673ffffffffffffffffffffffffffffffffffffffff1681526020019081526020016000206004015410610e40576040517f08c379a0000000000000000000000000000000000000000000000000000000008152600401610e37906117cf565b60405180910390fd5b806000808473ffffffffffffffffffffffffffffffffffffffff1673ffffffffffffffffffffffffffffffffffffffff1681526020019081526020016000206006016000828254610e9191906117ef565b925050819055505050565b600073ffffffffffffffffffffffffffffffffffffffff168173ffffffffffffffffffffffffffffffffffffffff1603610f0b576040517f08c379a0000000000000000000000000000000000000000000000000000000008152600401610f029061166e565b60405180910390fd5b60008060008373ffffffffffffffffffffffffffffffffffffffff1673ffffffffffffffffffffffffffffffffffffffff16815260200190815260200160002060000160006101000a81548160ff02191690831515021790555050565b600073ffffffffffffffffffffffffffffffffffffffff168173ffffffffffffffffffffffffffffffffffffffff1603610fd7576040517f08c379a0000000000000000000000000000000000000000000000000000000008152600401610fce9061166e565b60405180910390fd5b60016000808373ffffffffffffffffffffffffffffffffffffffff1673ffffffffffffffffffffffffffffffffffffffff16815260200190815260200160002060000160006101000a81548160ff02191690831515021790555050565b60008210158015611046575060008110155b61104f57600080fd5b600073ffffffffffffffffffffffffffffffffffffffff168373ffffffffffffffffffffffffffffffffffffffff16036110be576040517f08c379a00000000000000000000000000000000000000000000000000000000081526004016110b59061166e565b60405180910390fd5b6000808473ffffffffffffffffffffffffffffffffffffffff1673ffffffffffffffffffffffffffffffffffffffff16815260200190815260200160002060020154821461114d57816000808573ffffffffffffffffffffffffffffffffffffffff1673ffffffffffffffffffffffffffffffffffffffff168152602001908152602001600020600201819055505b6000808473ffffffffffffffffffffffffffffffffffffffff1673ffffffffffffffffffffffffffffffffffffffff1681526020019081526020016000206003015481146111dc57806000808573ffffffffffffffffffffffffffffffffffffffff1673ffffffffffffffffffffffffffffffffffffffff168152602001908152602001600020600301819055505b60008060008573ffffffffffffffffffffffffffffffffffffffff1673ffffffffffffffffffffffffffffffffffffffff16815260200190815260200160002060050154838361122c91906117ef565b61123691906117ef565b90506000808573ffffffffffffffffffffffffffffffffffffffff1673ffffffffffffffffffffffffffffffffffffffff1681526020019081526020016000206004015481146112c757806000808673ffffffffffffffffffffffffffffffffffffffff1673ffffffffffffffffffffffffffffffffffffffff168152602001908152602001600020600401819055505b50505050565b600080fd5b6000819050919050565b6112e5816112d2565b81146112f057600080fd5b50565b600081359050611302816112dc565b92915050565b60006020828403121561131e5761131d6112cd565b5b600061132c848285016112f3565b91505092915050565b600073ffffffffffffffffffffffffffffffffffffffff82169050919050565b600061136082611335565b9050919050565b61137081611355565b82525050565b600060208201905061138b6000830184611367565b92915050565b61139a81611355565b81146113a557600080fd5b50565b6000813590506113b781611391565b92915050565b600080604083850312156113d4576113d36112cd565b5b60006113e2858286016113a8565b92505060206113f3858286016112f3565b9150509250929050565b611406816112d2565b82525050565b600060208201905061142160008301846113fd565b92915050565b60006020828403121561143d5761143c6112cd565b5b600061144b848285016113a8565b91505092915050565b60008115159050919050565b61146981611454565b82525050565b600060e082019050611484600083018a611460565b61149160208301896113fd565b61149e60408301886113fd565b6114ab60608301876113fd565b6114b860808301866113fd565b6114c560a08301856113fd565b6114d260c08301846113fd565b98975050505050505050565b600081519050919050565b600082825260208201905092915050565b6000819050602082019050919050565b61151381611355565b82525050565b6000611525838361150a565b60208301905092915050565b6000602082019050919050565b6000611549826114de565b61155381856114e9565b935061155e836114fa565b8060005b8381101561158f5781516115768882611519565b975061158183611531565b925050600181019050611562565b5085935050505092915050565b600060208201905081810360008301526115b6818461153e565b905092915050565b6000806000606084860312156115d7576115d66112cd565b5b60006115e5868287016113a8565b93505060206115f6868287016112f3565b9250506040611607868287016112f3565b9150509250925092565b600082825260208201905092915050565b7f56657269666963617220646972656363696f6e00000000000000000000000000600082015250565b6000611658601383611611565b915061166382611622565b602082019050919050565b600060208201905081810360008301526116878161164b565b9050919050565b7f4d656469646f72206578697374656e7465000000000000000000000000000000600082015250565b60006116c4601183611611565b91506116cf8261168e565b602082019050919050565b600060208201905081810360008301526116f3816116b7565b9050919050565b7f4e487b7100000000000000000000000000000000000000000000000000000000600052601160045260246000fd5b6000611734826112d2565b915061173f836112d2565b9250828201905080821115611757576117566116fa565b5b92915050565b7f4e6f2068617920737566696369656e746520656e657267696120646973706f6e60008201527f69626c6500000000000000000000000000000000000000000000000000000000602082015250565b60006117b9602483611611565b91506117c48261175d565b604082019050919050565b600060208201905081810360008301526117e8816117ac565b9050919050565b60006117fa826112d2565b9150611805836112d2565b925082820390508181111561181d5761181c6116fa565b5b92915050565b600061182e826112d2565b9150611839836112d2565b9250828202611847816112d2565b9150828204841483151761185e5761185d6116fa565b5b509291505056fea2646970667358221220172c37444e1ccac45e601e9b53a3d1365b9c96e46f14f60909f2106998d6cf1164736f6c63430008140033",
  "linkReferences": {},
  "deployedLinkReferences": {}
}