{
  "_format": "hh-sol-artifact-1",
  "contractName": "Microgrid",
  "sourceName": "contracts/Microgrid.sol",
  "abi": [
    {
      "inputs": [
        {
          "internalType": "address",
          "name": "_meterAddress",
          "type": "address"
        },
        {
          "internalType": "uint256",
          "name": "_rate",
          "type": "uint256"
        }
      ],
      "name": "createMeter",
      "outputs": [],
      "stateMutability": "nonpayable",
      "type": "function"
    },
    {
      "inputs": [
        {
          "internalType": "address",
          "name": "_meterAddress",
          "type": "address"
        },
        {
          "internalType": "uint256",
          "name": "_amount",
          "type": "uint256"
        }
      ],
      "name": "delivering",
      "outputs": [],
      "stateMutability": "nonpayable",
      "type": "function"
    },
    {
      "inputs": [
        {
          "internalType": "address",
          "name": "_meterAddress",
          "type": "address"
        }
      ],
      "name": "disableMeter",
      "outputs": [],
      "stateMutability": "nonpayable",
      "type": "function"
    },
    {
      "inputs": [
        {
          "internalType": "address",
          "name": "_meterAddress",
          "type": "address"
        }
      ],
      "name": "enableMeter",
      "outputs": [],
      "stateMutability": "nonpayable",
      "type": "function"
    },
    {
      "inputs": [],
      "name": "getAllMeters",
      "outputs": [
        {
          "internalType": "address[]",
          "name": "",
          "type": "address[]"
        }
      ],
      "stateMutability": "view",
      "type": "function"
    },
    {
      "inputs": [],
      "name": "getProsumerMeters",
      "outputs": [
        {
          "internalType": "address[]",
          "name": "",
          "type": "address[]"
        }
      ],
      "stateMutability": "view",
      "type": "function"
    },
    {
      "inputs": [
        {
          "internalType": "uint256",
          "name": "",
          "type": "uint256"
        }
      ],
      "name": "meterList",
      "outputs": [
        {
          "internalType": "address",
          "name": "",
          "type": "address"
        }
      ],
      "stateMutability": "view",
      "type": "function"
    },
    {
      "inputs": [
        {
          "internalType": "address",
          "name": "",
          "type": "address"
        }
      ],
      "name": "meterMeasures",
      "outputs": [
        {
          "internalType": "bool",
          "name": "active",
          "type": "bool"
        },
        {
          "internalType": "uint256",
          "name": "rate",
          "type": "uint256"
        },
        {
          "internalType": "uint256",
          "name": "energyConsumed",
          "type": "uint256"
        },
        {
          "internalType": "uint256",
          "name": "energyProduced",
          "type": "uint256"
        },
        {
          "internalType": "uint256",
          "name": "energyAvailable",
          "type": "uint256"
        },
        {
          "internalType": "uint256",
          "name": "energyDelivered",
          "type": "uint256"
        },
        {
          "internalType": "uint256",
          "name": "energyReserved",
          "type": "uint256"
        }
      ],
      "stateMutability": "view",
      "type": "function"
    },
    {
      "inputs": [
        {
          "internalType": "address",
          "name": "",
          "type": "address"
        }
      ],
      "name": "meterProsumer",
      "outputs": [
        {
          "internalType": "address",
          "name": "",
          "type": "address"
        }
      ],
      "stateMutability": "view",
      "type": "function"
    },
    {
      "inputs": [
        {
          "internalType": "address",
          "name": "_meterAddress",
          "type": "address"
        },
        {
          "internalType": "uint256",
          "name": "_energyConsumed",
          "type": "uint256"
        },
        {
          "internalType": "uint256",
          "name": "_energyProduced",
          "type": "uint256"
        }
      ],
      "name": "meterReport",
      "outputs": [],
      "stateMutability": "nonpayable",
      "type": "function"
    },
    {
      "inputs": [
        {
          "internalType": "address",
          "name": "",
          "type": "address"
        },
        {
          "internalType": "uint256",
          "name": "",
          "type": "uint256"
        }
      ],
      "name": "prosumerMeters",
      "outputs": [
        {
          "internalType": "address",
          "name": "",
          "type": "address"
        }
      ],
      "stateMutability": "view",
      "type": "function"
    },
    {
      "inputs": [
        {
          "internalType": "address",
          "name": "_meterAddress",
          "type": "address"
        },
        {
          "internalType": "uint256",
          "name": "_amount",
          "type": "uint256"
        }
      ],
      "name": "rejecting",
      "outputs": [],
      "stateMutability": "nonpayable",
      "type": "function"
    },
    {
      "inputs": [
        {
          "internalType": "address",
          "name": "_meterAddress",
          "type": "address"
        },
        {
          "internalType": "uint256",
          "name": "_amount",
          "type": "uint256"
        }
      ],
      "name": "reserving",
      "outputs": [
        {
          "internalType": "uint256",
          "name": "",
          "type": "uint256"
        }
      ],
      "stateMutability": "nonpayable",
      "type": "function"
    },
    {
      "inputs": [
        {
          "internalType": "address",
          "name": "_meterAddress",
          "type": "address"
        },
        {
          "internalType": "uint256",
          "name": "_rate",
          "type": "uint256"
        }
      ],
      "name": "setRate",
      "outputs": [],
      "stateMutability": "nonpayable",
      "type": "function"
    },
    {
      "inputs": [],
      "name": "totalMeters",
      "outputs": [
        {
          "internalType": "uint256",
          "name": "",
          "type": "uint256"
        }
      ],
      "stateMutability": "view",
      "type": "function"
    }
  ],
  "bytecode": "608060405234801561000f575f80fd5b506117ea8061001d5f395ff3fe608060405234801561000f575f80fd5b50600436106100f3575f3560e01c80637cc9dbc011610095578063a81993c911610064578063a81993c91461029b578063a851d379146102b7578063d4d9dfc9146102d3578063de348951146102ef576100f3565b80637cc9dbc0146101ff5780638482df6a1461021d578063931c93e91461024d578063a76aab681461026b576100f3565b806350fa74cc116100d157806350fa74cc1461016157806365580ec01461017d5780636caf9be2146101ad57806372abdd3b146101c9576100f3565b80630b929a2d146100f75780632bdb709714610127578063374cd5ae14610143575b5f80fd5b610111600480360381019061010c9190611286565b61030b565b60405161011e91906112f0565b60405180910390f35b610141600480360381019061013c9190611333565b610346565b005b61014b6103fc565b6040516101589190611380565b60405180910390f35b61017b60048036038101906101769190611333565b610402565b005b61019760048036038101906101929190611333565b61076c565b6040516101a49190611380565b60405180910390f35b6101c760048036038101906101c29190611333565b610965565b005b6101e360048036038101906101de9190611399565b610b0e565b6040516101f697969594939291906113de565b60405180910390f35b610207610b57565b6040516102149190611502565b60405180910390f35b61023760048036038101906102329190611399565b610be2565b60405161024491906112f0565b60405180910390f35b610255610c12565b6040516102629190611502565b60405180910390f35b61028560048036038101906102809190611333565b610cd8565b60405161029291906112f0565b60405180910390f35b6102b560048036038101906102b09190611333565b610d20565b005b6102d160048036038101906102cc9190611399565b610e3c565b005b6102ed60048036038101906102e89190611399565b610f02565b005b61030960048036038101906103049190611522565b610fc9565b005b6003818154811061031a575f80fd5b905f5260205f20015f915054906101000a900473ffffffffffffffffffffffffffffffffffffffff1681565b5f73ffffffffffffffffffffffffffffffffffffffff168273ffffffffffffffffffffffffffffffffffffffff16036103b4576040517f08c379a00000000000000000000000000000000000000000000000000000000081526004016103ab906115cc565b60405180910390fd5b805f808473ffffffffffffffffffffffffffffffffffffffff1673ffffffffffffffffffffffffffffffffffffffff1681526020019081526020015f20600101819055505050565b60045481565b5f811161040d575f80fd5b5f73ffffffffffffffffffffffffffffffffffffffff168273ffffffffffffffffffffffffffffffffffffffff160361047b576040517f08c379a0000000000000000000000000000000000000000000000000000000008152600401610472906115cc565b60405180910390fd5b5f15155f808473ffffffffffffffffffffffffffffffffffffffff1673ffffffffffffffffffffffffffffffffffffffff1681526020019081526020015f205f015f9054906101000a900460ff1615151461050b576040517f08c379a000000000000000000000000000000000000000000000000000000000815260040161050290611634565b60405180910390fd5b3360015f8473ffffffffffffffffffffffffffffffffffffffff1673ffffffffffffffffffffffffffffffffffffffff1681526020019081526020015f205f6101000a81548173ffffffffffffffffffffffffffffffffffffffff021916908373ffffffffffffffffffffffffffffffffffffffff1602179055506040518060e001604052806001151581526020018281526020015f81526020015f81526020015f81526020015f81526020015f8152505f808473ffffffffffffffffffffffffffffffffffffffff1673ffffffffffffffffffffffffffffffffffffffff1681526020019081526020015f205f820151815f015f6101000a81548160ff0219169083151502179055506020820151816001015560408201518160020155606082015181600301556080820151816004015560a0820151816005015560c08201518160060155905050600382908060018154018082558091505060019003905f5260205f20015f9091909190916101000a81548173ffffffffffffffffffffffffffffffffffffffff021916908373ffffffffffffffffffffffffffffffffffffffff16021790555060025f3373ffffffffffffffffffffffffffffffffffffffff1673ffffffffffffffffffffffffffffffffffffffff1681526020019081526020015f2082908060018154018082558091505060019003905f5260205f20015f9091909190916101000a81548173ffffffffffffffffffffffffffffffffffffffff021916908373ffffffffffffffffffffffffffffffffffffffff160217905550600160045f828254610761919061167f565b925050819055505050565b5f808211610778575f80fd5b5f73ffffffffffffffffffffffffffffffffffffffff168373ffffffffffffffffffffffffffffffffffffffff16036107e6576040517f08c379a00000000000000000000000000000000000000000000000000000000081526004016107dd906115cc565b60405180910390fd5b815f808573ffffffffffffffffffffffffffffffffffffffff1673ffffffffffffffffffffffffffffffffffffffff1681526020019081526020015f20600401541015610868576040517f08c379a000000000000000000000000000000000000000000000000000000000815260040161085f90611722565b60405180910390fd5b815f808573ffffffffffffffffffffffffffffffffffffffff1673ffffffffffffffffffffffffffffffffffffffff1681526020019081526020015f206006015f8282546108b6919061167f565b92505081905550815f808573ffffffffffffffffffffffffffffffffffffffff1673ffffffffffffffffffffffffffffffffffffffff1681526020019081526020015f206004015f82825461090b9190611740565b925050819055505f808473ffffffffffffffffffffffffffffffffffffffff1673ffffffffffffffffffffffffffffffffffffffff1681526020019081526020015f20600101548261095d9190611773565b905092915050565b5f8111610970575f80fd5b5f73ffffffffffffffffffffffffffffffffffffffff168273ffffffffffffffffffffffffffffffffffffffff16036109de576040517f08c379a00000000000000000000000000000000000000000000000000000000081526004016109d5906115cc565b60405180910390fd5b805f808473ffffffffffffffffffffffffffffffffffffffff1673ffffffffffffffffffffffffffffffffffffffff1681526020019081526020015f20600401541015610a60576040517f08c379a0000000000000000000000000000000000000000000000000000000008152600401610a5790611722565b60405180910390fd5b805f808473ffffffffffffffffffffffffffffffffffffffff1673ffffffffffffffffffffffffffffffffffffffff1681526020019081526020015f206005015f828254610aae919061167f565b92505081905550805f808473ffffffffffffffffffffffffffffffffffffffff1673ffffffffffffffffffffffffffffffffffffffff1681526020019081526020015f206006015f828254610b039190611740565b925050819055505050565b5f602052805f5260405f205f91509050805f015f9054906101000a900460ff16908060010154908060020154908060030154908060040154908060050154908060060154905087565b60606003805480602002602001604051908101604052809291908181526020018280548015610bd857602002820191905f5260205f20905b815f9054906101000a900473ffffffffffffffffffffffffffffffffffffffff1673ffffffffffffffffffffffffffffffffffffffff1681526020019060010190808311610b8f575b5050505050905090565b6001602052805f5260405f205f915054906101000a900473ffffffffffffffffffffffffffffffffffffffff1681565b606060025f3373ffffffffffffffffffffffffffffffffffffffff1673ffffffffffffffffffffffffffffffffffffffff1681526020019081526020015f20805480602002602001604051908101604052809291908181526020018280548015610cce57602002820191905f5260205f20905b815f9054906101000a900473ffffffffffffffffffffffffffffffffffffffff1673ffffffffffffffffffffffffffffffffffffffff1681526020019060010190808311610c85575b5050505050905090565b6002602052815f5260405f208181548110610cf1575f80fd5b905f5260205f20015f915091509054906101000a900473ffffffffffffffffffffffffffffffffffffffff1681565b5f8111610d2b575f80fd5b5f73ffffffffffffffffffffffffffffffffffffffff168273ffffffffffffffffffffffffffffffffffffffff1603610d62575f80fd5b805f808473ffffffffffffffffffffffffffffffffffffffff1673ffffffffffffffffffffffffffffffffffffffff1681526020019081526020015f206004015410610de3576040517f08c379a0000000000000000000000000000000000000000000000000000000008152600401610dda90611722565b60405180910390fd5b805f808473ffffffffffffffffffffffffffffffffffffffff1673ffffffffffffffffffffffffffffffffffffffff1681526020019081526020015f206006015f828254610e319190611740565b925050819055505050565b5f73ffffffffffffffffffffffffffffffffffffffff168173ffffffffffffffffffffffffffffffffffffffff1603610eaa576040517f08c379a0000000000000000000000000000000000000000000000000000000008152600401610ea1906115cc565b60405180910390fd5b5f805f8373ffffffffffffffffffffffffffffffffffffffff1673ffffffffffffffffffffffffffffffffffffffff1681526020019081526020015f205f015f6101000a81548160ff02191690831515021790555050565b5f73ffffffffffffffffffffffffffffffffffffffff168173ffffffffffffffffffffffffffffffffffffffff1603610f70576040517f08c379a0000000000000000000000000000000000000000000000000000000008152600401610f67906115cc565b60405180910390fd5b60015f808373ffffffffffffffffffffffffffffffffffffffff1673ffffffffffffffffffffffffffffffffffffffff1681526020019081526020015f205f015f6101000a81548160ff02191690831515021790555050565b5f8210158015610fd957505f8110155b610fe1575f80fd5b5f73ffffffffffffffffffffffffffffffffffffffff168373ffffffffffffffffffffffffffffffffffffffff160361104f576040517f08c379a0000000000000000000000000000000000000000000000000000000008152600401611046906115cc565b60405180910390fd5b5f808473ffffffffffffffffffffffffffffffffffffffff1673ffffffffffffffffffffffffffffffffffffffff1681526020019081526020015f206002015482146110da57815f808573ffffffffffffffffffffffffffffffffffffffff1673ffffffffffffffffffffffffffffffffffffffff1681526020019081526020015f20600201819055505b5f808473ffffffffffffffffffffffffffffffffffffffff1673ffffffffffffffffffffffffffffffffffffffff1681526020019081526020015f2060030154811461116557805f808573ffffffffffffffffffffffffffffffffffffffff1673ffffffffffffffffffffffffffffffffffffffff1681526020019081526020015f20600301819055505b5f805f8573ffffffffffffffffffffffffffffffffffffffff1673ffffffffffffffffffffffffffffffffffffffff1681526020019081526020015f206005015483836111b29190611740565b6111bc9190611740565b90505f808573ffffffffffffffffffffffffffffffffffffffff1673ffffffffffffffffffffffffffffffffffffffff1681526020019081526020015f2060040154811461124957805f808673ffffffffffffffffffffffffffffffffffffffff1673ffffffffffffffffffffffffffffffffffffffff1681526020019081526020015f20600401819055505b50505050565b5f80fd5b5f819050919050565b61126581611253565b811461126f575f80fd5b50565b5f813590506112808161125c565b92915050565b5f6020828403121561129b5761129a61124f565b5b5f6112a884828501611272565b91505092915050565b5f73ffffffffffffffffffffffffffffffffffffffff82169050919050565b5f6112da826112b1565b9050919050565b6112ea816112d0565b82525050565b5f6020820190506113035f8301846112e1565b92915050565b611312816112d0565b811461131c575f80fd5b50565b5f8135905061132d81611309565b92915050565b5f80604083850312156113495761134861124f565b5b5f6113568582860161131f565b925050602061136785828601611272565b9150509250929050565b61137a81611253565b82525050565b5f6020820190506113935f830184611371565b92915050565b5f602082840312156113ae576113ad61124f565b5b5f6113bb8482850161131f565b91505092915050565b5f8115159050919050565b6113d8816113c4565b82525050565b5f60e0820190506113f15f83018a6113cf565b6113fe6020830189611371565b61140b6040830188611371565b6114186060830187611371565b6114256080830186611371565b61143260a0830185611371565b61143f60c0830184611371565b98975050505050505050565b5f81519050919050565b5f82825260208201905092915050565b5f819050602082019050919050565b61147d816112d0565b82525050565b5f61148e8383611474565b60208301905092915050565b5f602082019050919050565b5f6114b08261144b565b6114ba8185611455565b93506114c583611465565b805f5b838110156114f55781516114dc8882611483565b97506114e78361149a565b9250506001810190506114c8565b5085935050505092915050565b5f6020820190508181035f83015261151a81846114a6565b905092915050565b5f805f606084860312156115395761153861124f565b5b5f6115468682870161131f565b935050602061155786828701611272565b925050604061156886828701611272565b9150509250925092565b5f82825260208201905092915050565b7f56657269666963617220646972656363696f6e000000000000000000000000005f82015250565b5f6115b6601383611572565b91506115c182611582565b602082019050919050565b5f6020820190508181035f8301526115e3816115aa565b9050919050565b7f4d656469646f72206578697374656e74650000000000000000000000000000005f82015250565b5f61161e601183611572565b9150611629826115ea565b602082019050919050565b5f6020820190508181035f83015261164b81611612565b9050919050565b7f4e487b71000000000000000000000000000000000000000000000000000000005f52601160045260245ffd5b5f61168982611253565b915061169483611253565b92508282019050808211156116ac576116ab611652565b5b92915050565b7f4e6f2068617920737566696369656e746520656e657267696120646973706f6e5f8201527f69626c6500000000000000000000000000000000000000000000000000000000602082015250565b5f61170c602483611572565b9150611717826116b2565b604082019050919050565b5f6020820190508181035f83015261173981611700565b9050919050565b5f61174a82611253565b915061175583611253565b925082820390508181111561176d5761176c611652565b5b92915050565b5f61177d82611253565b915061178883611253565b925082820261179681611253565b915082820484148315176117ad576117ac611652565b5b509291505056fea264697066735822122020dd711439146fe7bb349dafdcb3ea1d4928fc461b5c41eb98beef516049287d64736f6c63430008160033",
  "linkReferences": {},
  "deployedLinkReferences": {}
}